:1000000036C05AC059C058C057C056C055C054C059
:1000100053C09FC351C06BC345C34EC04DC04CC0FD
:100020004BC0E1C349C00000000038003500320079
:10003000040404040404040402020202020203038E
:100040000303030301020408102040800102040896
:100050001020010204081020000000000000000031
:100060000003040600000000000000001705112432
:100070001FBECFE5D4E0DEBFCDBF10E0A0E6B0E00C
:10008000E6E2FDE002C005900D92A838B107D9F76D
:1000900021E0A8E8B0E001C01D92A03FB207E1F75F
:1000A00010E0C7E3D0E003C02197FE0130D6C6338D
:1000B000D107D1F7F3D435C6A3CF90E0FC01E85ABD
:1000C000FF4F2491FC01EC5BFF4F3491FC01E05D9C
:1000D000FF4FE491EE23F9F0222381F0243039F030
:1000E000263049F0233051F48FB58F7702C08FB599
:1000F0008F7D8FBD03C085B58F7D85BDF0E0EE0F90
:10010000FF1FEA5DFF4FA591B4918FB7F894EC9172
:10011000E32BEC938FBF0895209146019091450108
:10012000213208F047C0809122018111FCCF32E0DA
:100130003093220131E0309321013FEF30932001D1
:1001400010921F0120931E01A5E2B1E04EEF50E096
:10015000FA013E2F341B321718F43D913193F9CF39
:100160001092FD002091FD00990F922B9093FD00BD
:100170009091FC00913051F41092FC009091FD00A0
:1001800093B906B603FCFACF95EC01C095EE96BF85
:10019000909122019230E1F3909120019F3F79F0FC
:1001A00080912001803241F080912001803331F034
:1001B00084E005C081E003C082E001C083E01092CA
:1001C0002401109246011092230108958091F900B4
:1001D00090E02091F800821B91090895CF92DF9260
:1001E000EF92FF920F931F93CF93DF936C017A01ED
:1001F0008B01C0E0D0E0CE15DF0589F0D8016D910C
:100200008D01D601ED91FC910190F081E02DC601A8
:100210000995892B11F47E0102C02196ECCFC7010C
:10022000DF91CF911F910F91FF90EF90DF90CF90D2
:100230000895FC01538D448D252F30E0842F90E0EC
:10024000821B930B541710F0CF96089501970895D1
:10025000FC01918D828D981761F0828DDF01A80FCE
:10026000B11D5D968C91928D9F5F9F73928F90E0F0
:1002700008958FEF9FEF0895FC01918D828D98175F
:1002800031F0828DE80FF11D858D90E008958FEF9C
:100290009FEF0895FC01918D228D892F90E0805C65
:1002A0009F4F821B91098F739927089587E491E0EE
:1002B000F1DF21E0892B09F420E0822F0895FC0171
:1002C000848DDF01A80FB11DA35ABF4F2C91848DDF
:1002D00090E001968F739927848FA689B7892C9314
:1002E000A089B1898C9180648C93938D848D9813AF
:1002F00006C00288F389E02D80818F7D8083089578
:10030000EF92FF920F931F93CF93DF93EC0181E065
:10031000888F9B8D8C8D981305C0E889F989808121
:1003200085FD23C0F62E0B8D10E00F5F1F4F0F735E
:100330001127E02E8C8DE8120BC00FB607FCFACF08
:10034000E889F989808185FFF5CFCE01B8DFF2CF4A
:100350008B8DFE01E80FF11DE35AFF4FF0820B8FEA
:10036000EA89FB898081806207C0EE89FF8960830A
:10037000E889F98980818064808381E090E0DF9161
:10038000CF911F910F91FF90EF900895CF93DF933E
:10039000EC01888D8823C1F0EA89FB89808185FD85
:1003A00005C0A889B9898C9186FD0EC00FB607FCDF
:1003B000F5CF808185FFF2CFA889B9898C9185FF1F
:1003C000EDCFCE017CDFE8CFDF91CF91089580E0C3
:1003D00090E0892B19F06ADF811112CE08953FB7A2
:1003E000F8948091D4009091D500A091D600B0915E
:1003F000D70022B708B600FE05C02F3F19F00196BE
:10040000A11DB11D3FBFBA2FA92F982F8827820F9A
:10041000911DA11DB11DBC01CD0142E0660F771FEA
:10042000881F991F4A95D1F708958F929F92AF9296
:10043000BF92CF92DF92EF92FF926B017C01CFDFF0
:100440004B015C01C114D104E104F104E9F0C7DF00
:10045000DC01CB0188199909AA09BB09883E9340A0
:10046000A105B10578F321E0C21AD108E108F1082D
:1004700088EE880E83E0981EA11CB11CC114D10423
:10048000E104F10421F7DECFFF90EF90DF90CF90F1
:10049000BF90AF909F908F90089585ED86BF06B670
:1004A00004FCFDCF1092220108954091AA00262F4E
:1004B00030E0240F311D21323105DCF4209122017E
:1004C0002430C9F4FC0180E090E0861758F43091A4
:1004D000AA002191DC01A857BF4FA30FB11D2C9397
:1004E0000196F3CF8091AA00680F6093AA0080E084
:1004F000089581E0089582E008950895E091F8005C
:100500008091F900E81730F4F0E0E852FF4F808165
:1005100090E008958FEF9FEF08959091F8008091FB
:10052000F900981750F4E92FF0E0E852FF4F2081CE
:1005300030E09F5F9093F80002C02FEF3FEFC901BA
:100540000895CF92DF92EF92FF920F931F93CF9374
:10055000DF937C01262F972F8A0180912301882326
:1005600091F0C62FD72F6E01C40ED51ECC15DD0518
:1005700069F06991D701ED91FC910190F081E02D36
:10058000C7010995F3CF642F822F8FDFC801DF9158
:10059000CF911F910F91FF90EF90DF90CF90089532
:1005A000CF93DF931F92CDB7DEB7698320912301EC
:1005B0002223D1F020914601203240F021E030E0AA
:1005C000FC013383228380E090E014C080912401F9
:1005D000E82FF0E0EB5DFE4F998190838F5F809371
:1005E00024018093460104C061E0CE0101965DDFE5
:1005F00081E090E00F90DF91CF910895089580E021
:1006000090E008958F929F92AF92BF920F931F93A5
:10061000CF93DF93CDB7DEB7A1970FB6F894DEBFC7
:100620000FBECDBF19A2423008F44AE08E010F5D23
:100630001F4F842E912CA12CB12CA501940145D3E0
:10064000E62FB901CA0101501109EA3014F4E05D46
:1006500001C0E95CD801EC93232B242B252B69F7EF
:100660000115110569F0F80101900020E9F73197B3
:10067000AF01401B510BB80187E491E0AFDD02C030
:1006800080E090E0A1960FB6F894DEBF0FBECDBF1C
:10069000DF91CF911F910F91BF90AF909F908F905E
:1006A00008953BD31F920F920FB60F9211242F93F0
:1006B0003F934F935F936F937F938F939F93AF93EA
:1006C000BF93EF93FF9387E491E0F9DDFF91EF9102
:1006D000BF91AF919F918F917F916F915F914F915A
:1006E0003F912F910F900FBE0F901F9018951F9262
:1006F0000F920FB60F9211242F938F939F93EF9326
:10070000FF93E0915701F09158018081E0915D01E4
:10071000F0915E0182FD12C09081809160018F5F37
:100720008F7320916101821751F0E0916001F0E038
:10073000E95BFE4F958F8093600101C08081FF913E
:10074000EF919F918F912F910F900FBE0F901F905F
:1007500018951F920F920FB60F9211242F933F936B
:100760008F939F93AF93BF938091D0009091D100CE
:10077000A091D200B091D3003091CF0023E0230F9D
:100780002D3720F40196A11DB11D05C026E8230FC9
:100790000296A11DB11D2093CF008093D0009093AD
:1007A000D100A093D200B093D3008091D400909157
:1007B000D500A091D600B091D7000196A11DB11D22
:1007C0008093D4009093D500A093D600B093D70027
:1007D000BF91AF919F918F913F912F910F900FBE3D
:1007E0000F901F9018951F920F920FB60F92112421
:1007F0002F933F934F935F936F937F938F939F9329
:10080000AF93BF93EF93FF9381B1887F803609F454
:1008100099C068F5883209F45BC090F4803109F41E
:1008200054C038F4882309F4EEC0883009F44DC070
:10083000EDC0883109F44CC0803209F45CC0E6C0D8
:10084000803409F466C048F4803309F454C0883316
:1008500009F0DCC080932001D1C0803509F44EC07E
:10086000883509F45BC0883409F0D0C0CEC088391F
:1008700009F4C1C0A8F4883709F464C038F4883694
:1008800009F460C0803709F45DC0C0C0883809F43D
:10089000B2C0803909F45CC0803809F0B7C058C0D4
:1008A000803B09F481C038F4803A09F462C0883A88
:1008B00009F47AC0ABC0803C09F4A0C0883C09F4BC
:1008C0009DC0883B09F485C0A1C08091FD0010C087
:1008D00090911F0180911E01981758F5E0911F011A
:1008E00081E08E0F80931F01F0E0E250FF4F808186
:1008F00083B985EC81C08093200187C0E0911F01FE
:1009000081E08E0F80931F0183B1F0E0E250FF4F32
:10091000808390911F0180911E016AC0E0911F01A8
:1009200081E08E0F80931F0183B1F0E0E250FF4F12
:10093000808380912101811168C081E08093FC0057
:1009400084EA5DC083E0809322011092CE00D1CF73
:100950008091CE00803208F04EC0E091CE0081E060
:100960008E0F8093CE0083B1F0E0E255FF4F80837D
:10097000C0CF85EC86BF109222018091CE008032DC
:1009800030F4E091CE00F0E0E255FF4F108260912C
:10099000CE0070E0E091AC00F091AD008EEA90E006
:1009A00009951092CE0032C084E08093220110920B
:1009B000AB001092AA00E091A800F091A90009955F
:1009C0008091AA00811105C081E08093AA00109255
:1009D0008800E091AB0081E08E0F8093AB00F0E0E7
:1009E000E857FF4F808183B99091AB008091AA00B6
:1009F000981708F47ECF85E886BF08C085EC86BFCF
:100A00001092220103C01092200147DDFF91EF9167
:100A1000BF91AF919F918F917F916F915F914F9116
:100A20003F912F910F900FBE0F901F901895E7E404
:100A3000F1E01382128288EE93E0A0E0B0E08483BC
:100A40009583A683B78324E630E03183208320E4B6
:100A500030E03587248749E250E0578746874BE2EC
:100A600050E0518B408B4AE250E0538B428B358BE8
:100A7000248B2CE230E0378B268B118E128E138E56
:100A8000148EE4EEF1E01382128284839583A683B0
:100A9000B78386E790E0918380830895789483B745
:100AA000826083BF83B7816083BF89B7816089BF5C
:100AB0001EBC8EB582608EBD8EB581608EBD8FB539
:100AC00081608FBD85B5846085BD85B5806485BD39
:100AD000329A319A309A379A1AB81092F8001092D6
:100AE000F90010922401109246011092220181E037
:100AF000809321011092FC0082E1DFDA83E1DDDAEC
:100B00000898099888E480B985E486BFE091570188
:100B1000F091580182E08083E0915301F0915401FB
:100B20001082E0915501F09156018FEC8083109274
:100B30005F01E0915B01F0915C0186E88083E091C8
:100B40005901F0915A01808180618083E0915901BF
:100B5000F0915A01808188608083E0915901F09181
:100B60005A01808180688083E0915901F0915A0197
:100B700080818F7D8083BB24B39480E7A82E992445
:100B80009A9495EE892E25EC722E08ED10E0B09225
:100B90002301A0924501109224011092460160E0C9
:100BA00084EE91E0FDDC60E584EE91E0F9DCB4DAFE
:100BB00066E470E080E090E038DCB09223011092AF
:100BC00024011092460162E084EE91E0E9DCA4DAAF
:100BD000809122018111FCCFB0922201B0922101BB
:100BE0009092200110921F01B0921E01B092FD0060
:100BF0008091FD00806E8093FD008091FC0081302B
:100C000051F41092FC008091FD0083B906B603FCFC
:100C1000FACF76BE01C086BE809122018130E1F319
:100C200080911F01823018F480911F0101C082E081
:100C3000AEEFB0E0E8EDF0E09E2F901B981718F4AF
:100C40009D919193F9CF1092F8008093F900823032
:100C5000A8F184EE91E061DCF82E84EE91E05DDC99
:100C6000DF2D20E0C22F8C2B9D2B9093FB008093D7
:100C7000FA006C01990FEE08FF08F7FE14C0E0912E
:100C80004701F09148010190F081E02D6DE287E489
:100C900091E0099566277727CB016C197D098E09AC
:100CA0009F094AE003C04AE0C701B601ABDC42E05D
:100CB00050E064E870E087E491E090DA6AEF70E079
:100CC00080E090E0B2DB83DB62CFA1E21A2EAA1BA8
:100CD000BB1BFD010DC0AA1FBB1FEE1FFF1FA217EC
:100CE000B307E407F50720F0A21BB30BE40BF50BE9
:100CF000661F771F881F991F1A9469F76095709572
:100D0000809590959B01AC01BD01CF010895EE0F38
:100D1000FF1F0590F491E02D099481E090E0F89494
:060D200000C0F894FFCFB3
:100D2600000000008001EE001901C6014A012801F9
:100D36003C0100000000D002A102FF027D02E60095
:080D46008D027E020D0A00007F
:00000001FF
