:1000000036C05AC059C058C057C056C055C054C059
:1000100053C09BC151C050C04FC04EC04DC04CC01A
:100020004BC0DDC149C0000000003800350032007F
:10003000040404040404040402020202020203038E
:100040000303030301020408102040800102040896
:100050001020010204081020000000000000000031
:1000600000030406000000000000000089031124C2
:100070001FBECFE5D4E0DEBFCDBF10E0A0E6B0E00C
:10008000ECE4F7E002C005900D92AA37B107D9F76A
:1000900021E0AAE7B0E001C01D92A532B207E1F766
:1000A00010E0C7E3D0E003C02197FE0143D3C6337D
:1000B000D107D1F7B8D248C3A3CF90E0FC01E85AEA
:1000C000FF4F2491FC01EC5BFF4F3491FC01E05D9C
:1000D000FF4FE491EE23F9F0222381F0243039F030
:1000E000263049F0233051F48FB58F7702C08FB599
:1000F0008F7D8FBD03C085B58F7D85BDF0E0EE0F90
:10010000FF1FEA5DFF4FA591B4918FB7F894EC9172
:10011000E32BEC938FBF0895E0911701F091180144
:10012000309729F01092100110920F010994089550
:10013000CF93DF93AC01E0919A00F0919B00309750
:10014000F1F090911201809111019817C0F090E0A8
:10015000292F30E02617370754F4D901A658BF4F8E
:10016000EA01C20FD31F88818C939F5FF1CF109259
:10017000120160931101CB01DF91CF910994DF91BE
:10018000CF910895CF92DF92EF92FF920F931F933A
:10019000CF93DF936C017A018B01C0E0D0E0CE15E4
:1001A000DF0589F0D8016D918D01D601ED91FC91AB
:1001B0000190F081E02DC6010995892B11F47E0193
:1001C00002C02196ECCFC701DF91CF911F910F9113
:1001D000FF90EF90DF90CF9008953FB7F894809113
:1001E000080190910901A0910A01B0910B0122B779
:1001F00008B600FE05C02F3F19F00196A11DB11DE4
:100200003FBFBA2FA92F982F8827820F911DA11DBC
:10021000B11DBC01CD0142E0660F771F881F991FF9
:100220004A95D1F7089585ED86BF06B604FCFDCF4B
:1002300010920E0108954091BC00262F30E0240F4B
:10024000311D21323105DCF420910E012430C9F436
:10025000FC0180E090E0861758F43091BC002191B9
:10026000DC01A456BF4FA30FB11D2C930196F3CF11
:100270008091BC00680F6093BC0080E0089581E02D
:10028000089582E008950895E0911201809111018E
:10029000E81730F4F0E0E658FF4F808190E00895D1
:1002A0008FEF9FEF0895909112018091110198179F
:1002B00050F4E92FF0E0E658FF4F208130E09F5FD7
:1002C0009093120102C02FEF3FEFC9010895809172
:1002D000110190E020911201821B91090895CF93A2
:1002E000DF9300D0CDB7DEB7CB01642F49835A83AB
:1002F000A2DF4981842F5A81952F0F900F90DF91B3
:10030000CF910895CF93DF931F92CDB7DEB7698366
:1003100061E0CE0101968FDF81E090E00F90DF91E8
:10032000CF910895089580E090E00895E09119013B
:10033000F0911A010280F381E02D46E050E062E77F
:1003400070E089E191E00994FBD11F920F920FB602
:100350000F9211242F933F938F939F93AF93BF934B
:100360008091040190910501A0910601B0910701CF
:100370003091030123E0230F2D3720F40196A11DB6
:10038000B11D05C026E8230F0296A11DB11D2093C3
:1003900003018093040190930501A0930601B0939B
:1003A00007018091080190910901A0910A01B09183
:1003B0000B010196A11DB11D8093080190930901C5
:1003C000A0930A01B0930B01BF91AF919F918F91C0
:1003D0003F912F910F900FBE0F901F9018951F9275
:1003E0000F920FB60F9211242F933F934F935F9369
:1003F0006F937F938F939F93AF93BF93EF93FF93ED
:1004000081B1887F803609F499C068F5883209F493
:100410005BC090F4803109F454C038F4882309F4A7
:10042000EEC0883009F44DC0EDC0883109F44CC0ED
:10043000803209F45CC0E6C0803409F466C048F438
:10044000803309F454C0883309F0DCC08093DF00A6
:10045000D1C0803509F44EC0883509F45BC08834BA
:1004600009F0D0C0CEC0883909F4C1C0A8F48837DB
:1004700009F464C038F4883609F460C0803709F4A0
:100480005DC0C0C0883809F4B2C0803909F45CC0CE
:10049000803809F0B7C058C0803B09F481C038F4F7
:1004A000803A09F462C0883A09F47AC0ABC0803C53
:1004B00009F4A0C0883C09F49DC0883B09F485C0BC
:1004C000A1C08091020110C09091010180910001B2
:1004D000981758F5E091010181E08E0F809301019A
:1004E000F0E0E052FF4F808183B985EC81C08093BA
:1004F000DF0087C0E091010181E08E0F8093010150
:1005000083B1F0E0E052FF4F808390910101809130
:1005100000016AC0E091010181E08E0F809301012A
:1005200083B1F0E0E052FF4F808380910D01811193
:1005300068C081E080930C0184EA5DC083E0809311
:100540000E011092DE00D1CF8091DE00803208F0E3
:100550004EC0E091DE0081E08E0F8093DE0083B11B
:10056000F0E0E254FF4F8083C0CF85EC86BF10924D
:100570000E018091DE00803230F4E091DE00F0E088
:10058000E254FF4F10826091DE0070E0E0911301B1
:10059000F09114018EEB90E009951092DE0032C0CC
:1005A00084E080930E011092BD001092BC00E09197
:1005B0001501F091160109958091BC00811105C0CB
:1005C00081E08093BC0010929C00E091BD0081E02E
:1005D0008E0F8093BD00F0E0E456FF4F808183B919
:1005E0009091BD008091BC00981708F47ECF85E8FB
:1005F00086BF08C085EC86BF10920E0103C0109222
:10060000DF0011DEFF91EF91BF91AF919F918F912C
:100610007F916F915F914F913F912F910F900FBEFE
:100620000F901F901895789483B7826083BF83B72B
:10063000816083BF89B7816089BF1EBC8EB582602F
:100640008EBD8EB581608EBD8FB581608FBD85B545
:10065000846085BD85B5806485BD329A319A309AB3
:10066000379A1AB880E182B98CE890E0909316012D
:100670008093150188E990E0909314018093130111
:1006800010921201109211011092100110920F019C
:1006900010920E0181E080930D0110920C0182E115
:1006A0000CDD83E10ADD0898099888E480B985E4C7
:1006B00086BF86E991E09093180180931701C0E00E
:1006C000D0E08BDD4B015C0184E6C82ED12CE12CFF
:1006D000F12C83DDDC01CB0188199909AA09BB093A
:1006E000883E9340A105B10558F021E0C21AD10817
:1006F000E108F10888EE880E83E0981EA11CB11C69
:10070000C114D104E104F10421F72097D1F278DC7F
:10071000D8CFE9E1F1E01382128288EE93E0A0E005
:10072000B0E084839583A683B78384E690E09183C9
:1007300080830895EE0FFF1F0590F491E02D09943A
:0C07400081E090E0F89400C0F894FFCF36
:10074C000000000082016F01930143016701530116
:0A075C00440168656C6C6F2000001A
:00000001FF
